:100000000C9458000C9480000C9480000C94800098
:100010000C9480000C9480000C9480000C94800060
:100020000C9480000C9480000C9480000C94800050
:100030000C9480000C9480000C9480000C94800040
:100040000C9400050C9480000C9480000C948000AB
:100050000C9480000C9480000C9480000C94800020
:100060000C944A050C948000000000002500280034
:100070002B00040404040404040402020202020229
:10008000030303030303010204081020408001025C
:1000900004081020010204081020000000080002DB
:1000A00001000003040700000000000000006906D2
:1000B00011241FBECFEFD8E0DEBFCDBF11E0A0E01E
:1000C000B1E0E8E4F9E102C005900D92A831B10772
:1000D000D9F722E0A8E1B1E001C01D92A630B20735
:1000E000E1F710E0C8E5D0E004C02197FE010E94CE
:1000F000770BC735D107C9F70E94A0060C94A20C54
:100100000C9400000895089590E0FC01E656FF4F1E
:100110002491FC01EA57FF4F3491FC01EE58FF4F48
:10012000E491EE23C9F0222339F0233001F1A8F441
:10013000213019F1223029F1F0E0EE0FFF1FE859CC
:10014000FF4FA591B4918FB7F894EC91611126C03F
:1001500030953E233C938FBF08952730A9F0283077
:10016000C9F0243049F7809180008F7D03C08091D1
:1001700080008F7780938000DFCF84B58F7784BD38
:10018000DBCF84B58F7DFBCF8091B0008F778093DC
:10019000B000D2CF8091B0008F7DF9CF3E2BDACF67
:1001A0003FB7F8948091820190918301A0918401DE
:1001B000B091850126B5A89B05C02F3F19F0019687
:1001C000A11DB11D3FBFBA2FA92F982F8827BC01B1
:1001D000CD01620F711D811D911D42E0660F771FD9
:1001E000881F991F4A95D1F7089520913901260F4C
:1001F0003327331F21323105ECF42091B201FC0189
:1002000090E080E0243069F082E00895A091390107
:100210002191AC01475E5E4FA40FB52FB11D2C9309
:100220000196861798F380913901680F6093390120
:1002300080E0089581E008951092B20181E08093FA
:10024000B10110928C0161E082E10E94840061E0C2
:1002500083E10E948400E9EBF0E080818E7F80835F
:1002600080818D7F808388E48093B80085E48093CB
:10027000BC00089510928B0110928A011092B9016E
:100280001092DB010E941C0182E890E090938901AA
:100290008093880183E890E09093870180938601A2
:1002A0000895CF93DF9391E0909318018823B9F0DC
:1002B000C091B800D091BA008091BC008A7B809335
:1002C000BC0060E082E10E94840060E083E10E9463
:1002D00084000E941C01D093BA00C093B800DF9143
:1002E000CF9108958F929F92AF92BF92CF92DF925B
:1002F000EF92FF920F931F93CF93DF93D091DB0187
:10030000D13208F0D7C0182FC091DA010E94D00076
:100310006B017C018091B20181116BC082E08093FE
:10032000B2011093B1018FEF8093B0011092AF0131
:10033000D093AE01AAEBB1E0EEE8F1E080E0D81393
:1003400091C010928D0180918D01CC0FC82BC0936C
:100350008D0180918C01813009F088C010928C0150
:100360000E94D0006B017C0180918D018093BB00C5
:100370008091B4019091B501A091B601B091B701FF
:10038000892B8A2B8B2BA1F00E94D0000091B40105
:100390001091B5012091B6013091B7016C197D091A
:1003A0008E099F09061717072807390708F442C066
:1003B0008091BC0083FDD8CF85EC8093BC000E9467
:1003C000D0006B017C018091B201823009F450C0F1
:1003D0008091B0018F3F09F46FC08091B0018032ED
:1003E00009F46CC08091B001803309F469C084E0E5
:1003F00026C08091B4019091B501A091B601B09151
:10040000B701892B8A2B8B2B09F484CF0E94D00053
:100410008090B4019090B501A090B601B090B70162
:100420006C197D098E099F0986169706A806B906DC
:1004300008F070CF8091B3010E94510185E01092C5
:10044000B9011092DB011092B801DF91CF911F9199
:100450000F91FF90EF90DF90CF90BF90AF909F9063
:100460008F9008959D9191938F5F69CF85EEA5CF71
:100470008091B4019091B501A091B601B091B701FE
:10048000892B8A2B8B2B09F49ECF0E94D0000091E0
:10049000B4011091B5012091B6013091B7016C19EA
:1004A0007D098E099F09061717072807390708F0E5
:1004B0008ACFC0CF81E0C3CF80E0C1CF82E0BFCF81
:1004C00083E0BDCF1F93CF93DF93EA01122FDC01AE
:1004D00011968D919C91DC01ED91FC910280F3814C
:1004E000E02D0995C817D90729F4812F0E947201C0
:1004F00091E0811190E0892FDF91CF911F910895B4
:10050000CF93DF93EC018B818823A1F0888191E068
:100510009093B8018093DA011092B9011092DB0137
:1005200081E00E94720191E0811190E0892FDF91BA
:10053000CF9108950E943A0181E08B83CE010E9401
:100540008002982F8111E2CFF1CF0895E0918B01C5
:1005500080918A01E81730F4F0E0E45AFE4F808180
:1005600090E008958FEF9FEF089590918B01809117
:100570008A012FEF3FEF981748F4E92FF0E0E45A93
:10058000FE4F208130E09F5F90938B01C901089559
:1005900080918A0190918B01891B990B0895CF92CC
:1005A000DF92EF92FF920F931F93CF93DF937C0123
:1005B000CB018A012091B801222389F0EB016B0164
:1005C000C40ED51ECC15DD0569F06991D701ED91FA
:1005D000FC910190F081E02DC7010995F3CF642FC4
:1005E0000E94F500C801DF91CF911F910F91FF90FC
:1005F000EF90DF90CF900895CF93DF931F92CDB708
:10060000DEB769832091B8012223F9F02091DB0144
:10061000203258F021E030E0FC013383228390E067
:1006200080E00F90DF91CF9108958091B901E82F7C
:10063000F0E0E654FE4F998190838F5F8093B9017B
:100640008093DB0181E090E0ECCF61E0CE01019688
:100650000E94F500F7CF90E080E00895E091FD0161
:10066000F091FE01248135812930310598F0BC01DB
:10067000808191E09093B8018093DA011092B901E2
:100680001092DB0121E049E050E0CF010E946202BC
:10069000811103C084E091E0089590E080E0089526
:1006A000CF93DF9300D0CDB7DEB789836A83809183
:1006B000FD019091FE01FC0124813581223031053C
:1006C000A0F0208131E03093B8012093DA0110923C
:1006D000B9011092DB0121E042E050E0BE016F5F02
:1006E0007F4F0E946202811107C084E091E00F9069
:1006F0000F90DF91CF91089590E080E0F8CF2F9296
:100700003F924F925F926F927F928F929F92AF92A1
:10071000BF92CF92DF92EF92FF920F931F93CF93EE
:10072000DF93CDB7DEB72E970FB6F894DEBF0FBEBE
:10073000CDBF6A017B0118012901282F30E03E87D7
:100740002D87C114D104E104F10409F0C4C0C9012A
:1007500004979695982F8827979587959C01990FD0
:10076000440B550B29833A834B835C83812C912C5A
:1007700054019927852D742D632D8AE10E94500321
:100780003C01892B09F08DC0622D8BE10E94500342
:100790003C01892B09F085C06B8163708CE10E945C
:1007A00050033C01892B09F07CC029813A814B819F
:1007B0005C819927852F742F632F8DE10E94500350
:1007C0003C01892B09F06DC069818EE10E945003C4
:1007D0003C01892B09F065C06A2D6F708FE10E9482
:1007E00050033C01892B09F05CC099278B2D7A2D91
:1007F000692D80E20E9450033C01892B09F051C011
:10080000682D81E20E9450033C01892B09F049C008
:1008100060EA81EB0E9450033C01892B09F041C042
:10082000C701B6010E94240A6B017C01C201B1011B
:100830000E94240A9B01AC01C701B6010E948309F2
:100840006B017C014D855E85BA01550F880B990BB4
:100850000E94260A9B01AC01C701B6010E9417093C
:100860006B017C016091E9017091EA018091EB01DB
:100870009091EC010E94260A9B01AC01C701B601D0
:100880000E940A0B21E02093F3010E94610A0E945A
:10089000F5096093F4017093F5018093F60190934C
:1008A000F701C3012E960FB6F894DEBF0FBECDBF81
:1008B000DF91CF911F910F91FF90EF90DF90CF903C
:1008C000BF90AF909F908F907F906F905F904F9070
:1008D0003F902F900895C201B8010E94240A4B0155
:1008E0005C01C701B6010E94240AA50194010E947F
:1008F000830920E030E040E053E40E940A0B0E94AC
:10090000610A6D837E838F8398876D857E8576955A
:10091000762F662777956795072E000C880B990B25
:100920000E94260A2D813E814F8158850E94170919
:1009300020E030E040E054E40E9416090E94F509EE
:1009400069837A838B839C83C701B60147E0660F76
:10095000771F881F991F4A95D1F70E94240A69873B
:100960007A878B879C872D813E814F815885C50171
:10097000B4010E940A0B9B01AC0169857A858B85C5
:100980009C850E9416090E94F5094B015C01F1CE7D
:1009900085ED8093BC008091B4019091B501A09148
:1009A000B601B091B7010796A11DB11D23E0B69520
:1009B000A795979587952A95D1F72091BC0024FD9E
:1009C00003C01092B20108954091B4015091B50155
:1009D0006091B6017091B701452B462B472B69F307
:1009E0000097A105B10541F02AE22A95F1F700C070
:1009F0000197A109B109E1CF8091B3010C94510194
:100A00001F920F920FB60F9211242F933F938F9343
:100A10009F93AF93BF9380917E0190917F01A091AE
:100A20008001B091810130917D0123E0230F2D37AA
:100A300058F50196A11DB11D20937D0180937E0183
:100A400090937F01A0938001B093810180918201F6
:100A500090918301A0918401B09185010196A11D1F
:100A6000B11D8093820190938301A0938401B09380
:100A70008501BF91AF919F918F913F912F910F90E1
:100A80000FBE0F901F90189526E8230F0296A11D08
:100A9000B11DD2CF1F920F920FB60F9211242F9338
:100AA0003F934F935F936F937F938F939F93AF93F6
:100AB000BF93EF93FF938091B900887F803609F44C
:100AC0004AC0F0F5883209F4A7C018F5803109F45E
:100AD0009BC0B8F4882309F4F9C0883009F494C0A5
:100AE000FF91EF91BF91AF919F918F917F916F9106
:100AF0005F914F913F912F910F900FBE0F901F90DC
:100B00001895883109F488C0803251F78093B0017C
:100B100014C0803409F49DC040F48033B9F38833A5
:100B2000F9F68093B00185ECB0C0803509F485C03A
:100B3000883509F496C0883499F60E94C804D0CF4D
:100B4000883909F48CC038F5883729F050F4883694
:100B500011F0803729F683E08093B20110925B0197
:100B600057C0883809F47BC0803919F0803809F003
:100B7000B7CF80915B01803208F071C0E0915B01DA
:100B800081E08E0F80935B018091BB00F0E0E55C1B
:100B9000FE4F80833DC0803B39F0E0F4803A09F499
:100BA00079C0883A09F09CCF84E08093B20110921A
:100BB0003A0110923901E0918801F091890109957B
:100BC0008091390181110FC081E080933901109229
:100BD000190109C0803C09F4A6CF883C09F4A3CFD1
:100BE000883B09F07DCFE0913A0181E08E0F809340
:100BF0003A01F0E0E75EFE4F80818093BB00909168
:100C00003A018091390129C080918D018093BB0008
:100C100085EC8093BC0064CF9091AF018091AE01D0
:100C2000981758F5E091AF0181E08E0F8093AF01E6
:100C3000F0E0E257FE4F8081E9CFE091AF0181E023
:100C40008E0F8093AF018091BB00F0E0E257FE4F22
:100C500080839091AF018091AE019817C8F285E82A
:100C6000D8CFE091AF0181E08E0F8093AF018091EA
:100C7000BB00F0E0E257FE4F80838091B10181110B
:100C80005CCF81E080938C0184EA8093BC00109259
:100C9000B20126CF85EC8093BC001092B201809106
:100CA0005B01803230F4E0915B01F0E0E55CFE4FE7
:100CB000108260915B0170E0E0918601F091870104
:100CC0008BE391E0099510925B010ACF1092B0017D
:100CD00034CFECEDF1E01382128288EE93E0A0E0D5
:100CE000B0E084839583A683B7838AE091E0918303
:100CF0008083E8EEF1E0168A158A108280E498E796
:100D0000ADE7B1E081839283A383B48380EC90E06C
:100D1000968385838EE190E0A0E0B0E087839087A2
:100D2000A187B28713861486158616861786108AC1
:100D3000118A128A138A148A178A108E118E0895C6
:100D4000CF93DF93CDB7DEB72A970FB6F894DEBF07
:100D50000FBECDBF789484B5826084BD84B58160B8
:100D600084BD85B5826085BD85B5816085BD809176
:100D70006E00816080936E001092810080918100EE
:100D800082608093810080918100816080938100E6
:100D9000809180008160809380008091B1008460A8
:100DA0008093B1008091B00081608093B000809109
:100DB0007A00846080937A0080917A0082608093C8
:100DC0007A0080917A00816080937A0080917A0025
:100DD000806880937A001092C1000E943A018CE0F2
:100DE0008093B8008091FD019091FE01009711F071
:100DF0000E94190C86E090E00E947D0B8C0180E639
:100E0000D8018C938CED91E012969C938E93119760
:100E100013961C92139780E290E015969C938E9304
:100E200014971093FE010093FD010E943A0181E0A6
:100E3000F8018383C8010E948002882309F46FC1EE
:100E40006FEF83E00E945003892B09F068C160E8CE
:100E500080E10E945003892B09F061C160E881E1C3
:100E60000E945003892B09F05AC160E882E10E9478
:100E70005003892B09F053C160E883E10E945003BD
:100E8000892B09F04CC160E884E10E945003892B52
:100E900009F045C160E885E10E945003892B09F003
:100EA0003EC160E886E10E945003892B09F037C1FA
:100EB00060E887E10E945003892B09F030C16091FE
:100EC000ED0187EB0E945003892B09F028C185E9C9
:100ED0008A87E090FD01F090FE01D70114968D9174
:100EE0009C911597892B09F403C18C9191E0909303
:100EF000B8018093DA011092B9011092DB0120E071
:100F000041E050E0BE01665F7F4FC7010E94620270
:100F1000882309F4EDC0CC24C39465EC362EF70188
:100F2000A480B58001E0A114B10409F400E0802E92
:100F3000912C102FD7012C900E94D0002B013C0146
:100F40008091B201811164C0C092B2010093B101DD
:100F5000BFEFB093B0011092AF018FEF800F80937D
:100F6000AE01C0928D0180918D01220C282A209221
:100F70008D0180918C01813009F08CC010928C0120
:100F80000E94D0002B013C0180918D018093BB0019
:100F90008091B4019091B501A091B601B091B701D3
:100FA000892B8A2B8B2BA1F00E94D0002091B401B9
:100FB0003091B5014091B6015091B701641975099E
:100FC00086099709261737074807590708F441C0CB
:100FD0008091BC0083FDD8CF3092BC000E94D0002D
:100FE0002B013C018091B201813009F457C08091FE
:100FF000AF01801710F41091AF01EEE8F1E0ACE51D
:10100000B1E080E0811751F191919D938F5FFACF0C
:101010008091B4019091B501A091B601B091B70152
:10102000892B8A2B8B2B09F48BCF0E94D000209127
:10103000B4013091B5014091B6015091B7016419E6
:10104000750986099709261737074807590708F0D1
:1010500077CF8091B3010E94510110E010928B0173
:1010600010938A011815190409F042C030E020E0FD
:1010700028153905A8F5D70111968D919C91DC01B1
:10108000ED91FC910284F385E02D099521E030E09B
:10109000D82EEECFE5EEE093BC00A0CF8091B40156
:1010A0009091B501A091B601B091B701892B8A2B1F
:1010B0008B2B09F497CF0E94D0002091B40130917E
:1010C000B5014091B6015091B701641975098609BF
:1010D0009709261737074807590708F083CFB9CF74
:1010E000AB2809F41CCF6D2D6F7785E90E94500362
:1010F0001092F3011092F4011092F5011092F60192
:101100001092F7011092F8011092F9011092FA0171
:101110001092FB011092FC0181E08093E801809124
:10112000E801882321F060E083E00E945003529898
:1011300090E0A92E90E0B92EFF24F3942AE2E22E4B
:1011400035E0D32E4BE1C42E52EC952E8AE0882E4A
:101150004A9B32C080917C0181112EC08091E801B0
:10116000882359F002EC11E020E030E04EE150E03D
:1011700060E070E08EE10E947F038091E8018823A7
:10118000C9F08091F3018823A9F0E9821A82DB82F9
:101190008091FF018C83DD821E821F821886198652
:1011A000CE0101960E942E03892B21F46FE080E18D
:1011B0000E945003F0927C014A9931C080917C01D9
:1011C000882369F18091E801882351F001E010E063
:1011D00020E030E040E050E0BA0180E10E947F036F
:1011E0008091E8018823C9F08091F3018823A9F058
:1011F000E9821A82CB828091FF018C83FD829E82DC
:101200001F8218868986CE0101960E942E03892BA3
:1012100021F46FE080E10E94500310927C01A11440
:10122000B10409F495CF0E94000090CF5058BB271D
:10123000AA270E942E090C94B80A0E94AA0A38F024
:101240000E94B10A20F039F49F3F19F426F40C945F
:10125000A70A0EF4E095E7FB0C94780AE92F0E94A8
:10126000C90A58F3BA17620773078407950720F075
:1012700079F4A6F50C94030B0EF4E0950B2EBA2F1F
:10128000A02D0B01B90190010C01CA01A00111248C
:10129000FF27591B99F0593F50F4503E68F11A1638
:1012A000F040A22F232F342F4427585FF3CF4695C9
:1012B00037952795A795F0405395C9F77EF41F16EB
:1012C000BA0B620B730B840BBAF09150A1F0FF0FB5
:1012D000BB1F661F771F881FC2F70EC0BA0F621FA1
:1012E000731F841F48F4879577956795B795F79591
:1012F0009E3F08F0B0CF9395880F08F09927EE0F26
:101300009795879508950E9497090C94B80A0E94B2
:10131000B10A58F00E94AA0A40F029F45F3F29F070
:101320000C94780A51110C94040B0C94A70A0E9497
:10133000C90A68F39923B1F3552391F3951B550B13
:10134000BB27AA2762177307840738F09F5F5F4F98
:10135000220F331F441FAA1FA9F335D00E2E3AF0D7
:10136000E0E832D091505040E695001CCAF72BD0EF
:10137000FE2F29D0660F771F881FBB1F2617370740
:101380004807AB07B0E809F0BB0B802DBF01FF2772
:1013900093585F4F3AF09E3F510578F00C94780ACD
:1013A0000C94040B5F3FE4F3983ED4F38695779555
:1013B0006795B795F7959F5FC9F7880F911D96952B
:1013C000879597F90895E1E0660F771F881FBB1F87
:1013D000621773078407BA0720F0621B730B840B34
:1013E000BA0BEE1F88F7E09508950E94D10A88F0A5
:1013F0009F5798F0B92F9927B751B0F0E1F0660FD9
:10140000771F881F991F1AF0BA95C9F714C0B13019
:1014100091F00E94030BB1E008950C94030B672F29
:10142000782F8827B85F39F0B93FCCF38695779548
:101430006795B395D9F73EF4909580957095619531
:101440007F4F8F4F9F4F0895E89409C097FB3EF45C
:1014500090958095709561957F4F8F4F9F4F992301
:10146000A9F0F92F96E9BB279395F695879577957F
:101470006795B795F111F8CFFAF4BB0F11F460FF3F
:101480001BC06F5F7F4F8F4F9F4F16C0882311F097
:1014900096E911C0772321F09EE8872F762F05C0AB
:1014A000662371F096E8862F70E060E02AF09A9546
:1014B000660F771F881FDAF7880F9695879597F93B
:1014C00008950E94EB0A90F09F3748F4911116F0AE
:1014D0000C94040B60E070E080E89FEB089526F424
:1014E0001B16611D711D811D0C947E0A0C94990AB6
:1014F00097F99F6780E870E060E00895882371F4B1
:10150000772321F09850872B762F07C0662311F49C
:1015100099270DC09051862B70E060E02AF09A95D3
:10152000660F771F881FDAF7880F9695879597F9CA
:1015300008959F3F31F0915020F4879577956795F6
:10154000B795880F911D9695879597F908959FEF08
:1015500080EC089500240A9416161706180609064A
:10156000089500240A941216130614060506089519
:10157000092E0394000C11F4882352F0BB0F40F4A1
:10158000BF2B11F460FF04C06F5F7F4F8F4F9F4FE1
:10159000089557FD9058440F551F59F05F3F71F063
:1015A0004795880F97FB991F61F09F3F79F08795CA
:1015B0000895121613061406551FF2CF4695F1DF53
:1015C00008C0161617061806991FF1CF86957105E3
:1015D0006105089408950E94D10AA0F0BEE7B917EA
:1015E00088F4BB279F3860F41616B11D672F782F3B
:1015F0008827985FF7CF869577956795B11D939566
:101600009639C8F30895E894BB2766277727CB015E
:1016100097F908950E941D0B0C94B80A0E94AA0A1B
:1016200038F00E94B10A20F0952311F00C94780A4A
:101630000C94A70A11240C94040B0E94C90A70F39D
:10164000959FC1F3950F50E0551F629FF001729F67
:10165000BB27F00DB11D639FAA27F00DB11DAA1F76
:10166000649F6627B00DA11D661F829F2227B00DC3
:10167000A11D621F739FB00DA11D621F839FA00D4E
:10168000611D221F749F3327A00D611D231F849F9E
:10169000600D211D822F762F6A2F11249F575040F5
:1016A0009AF0F1F088234AF0EE0FFF1FBB1F661F70
:1016B000771F881F91505040A9F79E3F510580F039
:1016C0000C94780A0C94040B5F3FE4F3983ED4F337
:1016D000869577956795B795F795E7959F5FC1F7DD
:1016E000FE2B880F911D9695879597F90895EE0F1B
:1016F000FF1F0590F491E02D09940F931F93CF9352
:10170000DF938230910510F482E090E0E0910402D2
:10171000F091050230E020E0B0E0A0E0309799F4CD
:101720002115310509F44AC0281B390B2430310535
:10173000D8F58A819B816115710589F1FB0193833D
:101740008283FE0111C040815181028113814817BB
:101750005907E0F04817590799F4109761F012966D
:101760000C93129713961C933296CF01DF91CF9171
:101770001F910F9108950093040210930502F4CF76
:101780002115310551F04217530738F0A901DB014B
:101790009A01BD01DF01F801C1CFEF01F9CF9093AC
:1017A000050280930402CDCFFE01E20FF31F819367
:1017B00091932250310939832883D7CF2091020297
:1017C00030910302232B41F4209102013091030157
:1017D0003093030220930202209100013091010115
:1017E0002115310541F42DB73EB7409104015091C8
:1017F0000501241B350BE0910202F0910302E21770
:10180000F307A0F42E1B3F0B2817390778F0AC0123
:101810004E5F5F4F2417350748F04E0F5F1F509300
:10182000030240930202819391939FCFF0E0E0E0A6
:101830009CCFCF93DF930097E9F0FC01329713829E
:101840001282A0910402B0910502ED0130E020E087
:101850001097A1F420813181820F931F2091020201
:10186000309103022817390709F061C0F093030291
:10187000E0930202DF91CF910895EA01CE17DF07CE
:10188000E8F54A815B819E0141155105B1F7E901F7
:10189000FB83EA8349915991C40FD51FEC17FD07CB
:1018A00061F4808191810296840F951FE9019983EB
:1018B0008883828193819B838A83F0E0E0E01296A3
:1018C0008D919C9113970097B9F52D913C911197AB
:1018D000CD010296820F931F2091020230910302E4
:1018E0002817390739F6309751F5109205021092F2
:1018F0000402B0930302A0930202BCCFD383C2833D
:1019000040815181840F951FC817D90761F44E5F3C
:101910005F4F88819981480F591F518340838A8185
:101920009B81938382832115310509F0B0CFF09319
:101930000502E09304029ECFFD01DC01C0CF1382BB
:081940001282D7CFF894FFCF0B
:1019480000000602800000000000FC02CF022B030A
:08195800A502C802B502A602B7
:00000001FF
