:100000000C9458000C9480000C9480000C94800098
:100010000C9480000C9480000C9480000C94800060
:100020000C9480000C9480000C9480000C94800050
:100030000C9480000C9480000C9480000C94800040
:100040000C94F9050C9480000C9480000C948000B2
:100050000C9480000C9480000C9480000C94800020
:100060000C9443060C94800000000000250028003A
:100070002B00040404040404040402020202020229
:10008000030303030303010204081020408001025C
:1000900004081020010204081020000000080002DB
:1000A00001000003040700000000000000006207D8
:1000B00011241FBECFEFD8E0DEBFCDBF11E0A0E01E
:1000C000B1E0E4E9FBE102C005900D92AC31B1076B
:1000D000D9F722E0ACE1B1E001C01D92AA30B2072D
:1000E000E1F710E0C8E5D0E004C02197FE010E94CE
:1000F0009D0CC735D107C9F70E9499070C94C80D0C
:100100000C9400000895089590E0FC01E656FF4F1E
:100110002491FC01EA57FF4F3491FC01EE58FF4F48
:10012000E491EE23C9F0222339F0233001F1A8F441
:10013000213019F1223029F1F0E0EE0FFF1FE859CC
:10014000FF4FA591B4918FB7F894EC91611126C03F
:1001500030953E233C938FBF08952730A9F0283077
:10016000C9F0243049F7809180008F7D03C08091D1
:1001700080008F7780938000DFCF84B58F7784BD38
:10018000DBCF84B58F7DFBCF8091B0008F778093DC
:10019000B000D2CF8091B0008F7DF9CF3E2BDACF67
:1001A0003FB7F8948091860190918701A0918801D2
:1001B000B091890126B5A89B05C02F3F19F0019683
:1001C000A11DB11D3FBFBA2FA92F982F8827BC01B1
:1001D000CD01620F711D811D911D42E0660F771FD9
:1001E000881F991F4A95D1F7089520913D01260F48
:1001F0003327331F21323105ECF42091B601FC0185
:1002000090E080E0243069F082E00895A0913D0103
:100210002191AC01435E5E4FA40FB52FB11D2C930D
:100220000196861798F380913D01680F60933D0118
:1002300080E0089581E008951092B60181E08093F6
:10024000B5011092900161E082E10E94840061E0BA
:1002500083E10E948400E9EBF0E080818E7F80835F
:1002600080818D7F808388E48093B80085E48093CB
:10027000BC00089510928F0110928E011092BD0162
:100280001092DF010E941C0182E890E090938D01A2
:1002900080938C0183E890E090938B0180938A0196
:1002A0000895CF93DF9391E090931C018823B9F0D8
:1002B000C091B800D091BA008091BC008A7B809335
:1002C000BC0060E082E10E94840060E083E10E9463
:1002D00084000E941C01D093BA00C093B800DF9143
:1002E000CF9108958F929F92AF92BF92CF92DF925B
:1002F000EF92FF920F931F93CF93DF93D091DF0183
:10030000D13208F0D7C0182FC091DE010E94D00072
:100310006B017C018091B60181116BC082E08093FA
:10032000B6011093B5018FEF8093B4011092B30121
:10033000D093B201AEEBB1E0E2E9F1E080E0D81396
:1003400091C01092910180919101CC0FC82BC09364
:10035000910180919001813009F088C01092900144
:100360000E94D0006B017C01809191018093BB00C1
:100370008091B8019091B901A091BA01B091BB01EF
:10038000892B8A2B8B2BA1F00E94D0000091B80101
:100390001091B9012091BA013091BB016C197D090E
:1003A0008E099F09061717072807390708F442C066
:1003B0008091BC0083FDD8CF85EC8093BC000E9467
:1003C000D0006B017C018091B601823009F450C0ED
:1003D0008091B4018F3F09F46FC08091B4018032E5
:1003E00009F46CC08091B401803309F469C084E0E1
:1003F00026C08091B8019091B901A091BA01B09145
:10040000BB01892B8A2B8B2B09F484CF0E94D0004F
:100410008090B8019090B901A090BA01B090BB0152
:100420006C197D098E099F0986169706A806B906DC
:1004300008F070CF8091B7010E94510185E01092C1
:10044000BD011092DF011092BC01DF91CF911F918D
:100450000F91FF90EF90DF90CF90BF90AF909F9063
:100460008F9008959D9191938F5F69CF85EEA5CF71
:100470008091B8019091B901A091BA01B091BB01EE
:10048000892B8A2B8B2B09F49ECF0E94D0000091E0
:10049000B8011091B9012091BA013091BB016C19DA
:1004A0007D098E099F09061717072807390708F0E5
:1004B0008ACFC0CF81E0C3CF80E0C1CF82E0BFCF81
:1004C00083E0BDCF1F93CF93DF93EA01122FDC01AE
:1004D00011968D919C91DC01ED91FC910280F3814C
:1004E000E02D0995C817D90729F4812F0E947201C0
:1004F00091E0811190E0892FDF91CF911F910895B4
:10050000CF93DF93EC018B818823A1F0888191E068
:100510009093BC018093DE011092BD011092DF0127
:1005200081E00E94720191E0811190E0892FDF91BA
:10053000CF9108950E943A0181E08B83CE010E9401
:100540008002982F8111E2CFF1CF0895E0918F01C1
:1005500080918E01E81730F4F0E0E05AFE4F808180
:1005600090E008958FEF9FEF089590918F01809113
:100570008E012FEF3FEF981748F4E92FF0E0E05A93
:10058000FE4F208130E09F5F90938F01C901089555
:1005900080918E0190918F01891B990B0895CF92C4
:1005A000DF92EF92FF920F931F93CF93DF937C0123
:1005B000CB018A012091BC01222389F0EB016B0160
:1005C000C40ED51ECC15DD0569F06991D701ED91FA
:1005D000FC910190F081E02DC7010995F3CF642FC4
:1005E0000E94F500C801DF91CF911F910F91FF90FC
:1005F000EF90DF90CF900895CF93DF931F92CDB708
:10060000DEB769832091BC012223F9F02091DF013C
:10061000203258F021E030E0FC013383228390E067
:1006200080E00F90DF91CF9108958091BD01E82F78
:10063000F0E0E254FE4F998190838F5F8093BD017B
:100640008093DF0181E090E0ECCF61E0CE01019684
:100650000E94F500F7CF90E080E00895CF93DF93FC
:1006600000D0CDB7DEB789836A8380910102909173
:100670000202FC012481358122303105A0F0208165
:1006800031E03093BC012093DE011092BD01109245
:10069000DF0121E042E050E0BE016F5F7F4F0E942A
:1006A0006202811107C084E091E00F900F90DF910A
:1006B000CF91089590E080E0F8CF2F923F924F9233
:1006C0005F926F927F92AF92BF92CF92DF92EF9242
:1006D000FF920F931F93CF93DF93CDB7DEB766974B
:1006E0000FB6F894DEBF0FBECDBF8A8B1B012B8BDC
:1006F0003C8B4D8B5E8B27013801C601B5010E94F2
:100700004A0B6A877B878C879D87C801B7010E9447
:100710004A0B2A853B854C855D850E94A90A20E00D
:1007200030E040E053E40E94300C0E94870B6E875B
:100730007F87888B998B6B897C898D899E8927E03F
:10074000660F771F881F991F2A95D1F70E944A0BC1
:100750002E853F85488959890E943D0A20E030E076
:1007600040E054E40E943C0A0E941B0BF62E072F27
:10077000182FC301B20137E0660F771F881F991F3A
:100780003A95D1F70E944A0B2B013C012E853F85FB
:10079000488959896A857B858C859D850E94300CA6
:1007A0009B01AC01C301B2010E943C0A0E941B0BD9
:1007B0009A89292F30E0F901EA5FFE4F90819983F1
:1007C000BA82AB82137024513E4FF9019789192BDD
:1007D0001C830D83FE82960185014CE0369527959A
:1007E000179507954A95D1F7F02FF07FAF2E8F70B0
:1007F000A82AAF82788769878091010290910202CE
:10080000FC012481358129303105C8F484E091E070
:1008100066960FB6F894DEBF0FBECDBFDF91CF91C5
:100820001F910F91FF90EF90DF90CF90BF90AF900E
:100830007F906F905F904F903F902F900895208110
:1008400031E03093BC012093DE011092BD01109283
:10085000DF0121E049E050E0BE016F5F7F4F0E9461
:100860006202882399F26FE22A94232809F06FE04C
:100870008A89813021F080E10E942E03C9CF81E175
:10088000FBCF2F923F924F925F926F927F928F9207
:100890009F92AF92BF92CF92DF92EF92FF920F930F
:1008A0001F93CF93DF93CDB7DEB72E970FB6F89493
:1008B000DEBF0FBECDBF9A87898749015A01170154
:1008C0002801062F10E081149104A104B10409F05D
:1008D000D5C0C80104979695982F88279795879536
:1008E0009C01990F440B550B29833A834B835C83FE
:1008F000C12CD12C760149855A85452B09F01AC1A6
:100900005AE15D839927852D742D632D8D810E9479
:100910002E033C01892B09F097C0622D8D818F5FDA
:100920000E942E033C01892B09F08EC06B816370FD
:100930008D818E5F0E942E033C01892B09F084C0BB
:1009400029813A814B815C819927852F742F632FF0
:100950008D818D5F0E942E033C01892B09F074C0AC
:1009600069818D818C5F0E942E033C01892B09F0E7
:100970006BC06E2D6F708D818B5F0E942E033C01CA
:10098000892B09F061C099278F2D7E2D6D2D8D81CA
:100990008A5F0E942E033C01892B09F055C06C2D03
:1009A0008D81895F0E942E033C01892B09F04CC088
:1009B00060EA81EB0E942E033C01892B09F044C0C0
:1009C000C501B4010E944A0B6B017C01C201B10157
:1009D0000E944A0B9B01AC01C701B6010E94A90A03
:1009E0006B017C01B801110F880B990B0E944C0B15
:1009F0009B01AC01C701B6010E943D0A6B017C015D
:100A00006091ED017091EE018091EF019091F00104
:100A10000E944C0B9B01AC01C701B6010E94300C37
:100A20000E94870B0E941B0B49855A8521E0452BAC
:100A300009F083C02093F7016093F8017093F901E6
:100A40008093FA019093FB01C3012E960FB6F894A0
:100A5000DEBF0FBECDBFDF91CF911F910F91FF90F1
:100A6000EF90DF90CF90BF90AF909F908F907F904E
:100A70006F905F904F903F902F900895C201B70103
:100A80000E944A0B6B017C01C501B4010E944A0B14
:100A9000A70196010E94A90A20E030E040E053E45B
:100AA0000E94300C0E94870B6D837E838F83988712
:100AB000B8017695762F662777956795072E000CF7
:100AC000880B990B0E944C0B2D813E814F815885DC
:100AD0000E943D0A20E030E040E054E40E943C0ADD
:100AE0000E941B0B69837A838B839C83C501B401AD
:100AF00047E0660F771F881F991F4A95D1F70E941C
:100B00004A0B6B877C878D879E872D813E814F8125
:100B10005885C701B6010E94300C9B01AC016B8562
:100B20007C858D859E850E943C0A0E941B0B6B0173
:100B30007C01E1CE82E28D83E5CE2093FC016093BF
:100B4000FD017093FE018093FF01909300027CCF22
:100B5000EF92FF920F931F932091EC01222371F0EB
:100B6000E12CF12C8701E39420E030E0A9010E9400
:100B700041041F910F91FF90EF90089585E090E060
:100B8000F8CF85ED8093BC008091B8019091B901B8
:100B9000A091BA01B091BB010796A11DB11D23E040
:100BA000B695A795979587952A95D1F72091BC0082
:100BB00024FD03C01092B60108954091B8015091F0
:100BC000B9016091BA017091BB01452B462B472BAF
:100BD00069F30097A105B10541F02AE22A95F1F7E2
:100BE00000C00197A109B109E1CF8091B7010C9430
:100BF00051011F920F920FB60F9211242F933F9322
:100C00008F939F93AF93BF938091820190918301C3
:100C1000A0918401B09185013091810123E0230FDF
:100C20002D3758F50196A11DB11D209381018093A8
:100C3000820190938301A0938401B09385018091F8
:100C4000860190918701A0918801B0918901019658
:100C5000A11DB11D8093860190938701A093880107
:100C6000B0938901BF91AF919F918F913F912F9147
:100C70000F900FBE0F901F90189526E8230F029635
:100C8000A11DB11DD2CF1F920F920FB60F9211244A
:100C90002F933F934F935F936F937F938F939F9384
:100CA000AF93BF93EF93FF938091B900887F803615
:100CB00009F44AC0F0F5883209F4A7C018F580316C
:100CC00009F49BC0B8F4882309F4F9C0883009F40A
:100CD00094C0FF91EF91BF91AF919F918F917F91C0
:100CE0006F915F914F913F912F910F900FBE0F9099
:100CF0001F901895883109F488C0803251F780938D
:100D0000B40114C0803409F49DC040F48033B9F3B9
:100D10008833F9F68093B40185ECB0C0803509F4CE
:100D200085C0883509F496C0883499F60E94C105BB
:100D3000D0CF883909F48CC038F5883729F050F4C1
:100D4000883611F0803729F683E08093B60110923F
:100D50005F0157C0883809F47BC0803919F08038AA
:100D600009F0B7CF80915F01803208F071C0E09147
:100D70005F0181E08E0F80935F018091BB00F0E006
:100D8000E15CFE4F80833DC0803B39F0E0F4803A67
:100D900009F479C0883A09F09CCF84E08093B601C9
:100DA00010923E0110923D01E0918C01F0918D0175
:100DB000099580913D0181110FC081E080933D0133
:100DC00010921D0109C0803C09F4A6CF883C09F4AB
:100DD000A3CF883B09F07DCFE0913E0181E08E0FEB
:100DE00080933E01F0E0E35EFE4F80818093BB0084
:100DF00090913E0180913D0129C0809191018093A5
:100E0000BB0085EC8093BC0064CF9091B3018091CE
:100E1000B201981758F5E091B30181E08E0F8093ED
:100E2000B301F0E0EE56FE4F8081E9CFE091B301CF
:100E300081E08E0F8093B3018091BB00F0E0EE560D
:100E4000FE4F80839091B3018091B2019817C8F250
:100E500085E8D8CFE091B30181E08E0F8093B30194
:100E60008091BB00F0E0EE56FE4F80838091B5018B
:100E700081115CCF81E08093900184EA8093BC0073
:100E80001092B60126CF85EC8093BC001092B6017B
:100E900080915F01803230F4E0915F01F0E0E15C2D
:100EA000FE4F108260915F0170E0E0918A01F09145
:100EB0008B018FE391E0099510925F010ACF1092A8
:100EC000B40134CFE0EEF1E01382128288EE93E0B9
:100ED000A0E0B0E084839583A683B7838DE091E0A2
:100EE00091838083ECEEF1E0168A158A108280E40B
:100EF00098E7ADE7B1E081839283A383B48380EC6C
:100F000090E0968385838EE190E0A0E0B0E0878357
:100F10009087A187B2871386148615861686178652
:100F2000108A118A128A138A148A178A108E118ED7
:100F30000895CF93DF931F92CDB7DEB7789484B531
:100F4000826084BD84B5816084BD85B5826085BDC5
:100F500085B5816085BD80916E00816080936E0053
:100F60001092810080918100826080938100809145
:100F700081008160809381008091800081608093F6
:100F800080008091B10084608093B1008091B000B6
:100F900081608093B00080917A00846080937A00B1
:100FA00080917A00826080937A0080917A008160DB
:100FB00080937A0080917A00806880937A00109202
:100FC000C1000E943A018CE08093B8008091010238
:100FD00090910202009711F00E943F0D86E090E090
:100FE0000E94A30C8C0180E6D8018C9380EE91E0E6
:100FF00012969C938E93119713961C92139780E2EE
:1010000090E015969C938E93149710930202009390
:1010100001020E943A0181E0F8018383C8010E9425
:101020008002882309F46FC16FEF83E00E942E03D2
:10103000892B09F068C160E880E10E942E03892BAA
:1010400009F061C160E881E10E942E03892B09F05B
:101050005AC160E882E10E942E03892B09F053C136
:1010600060E883E10E942E03892B09F04CC160E8FF
:1010700084E10E942E03892B09F045C160E885E1D7
:101080000E942E03892B09F03EC160E886E10E9490
:101090002E03892B09F037C160E887E10E942E03F7
:1010A000892B09F030C16091F10187EB0E942E037A
:1010B000892B09F028C185E98983E0900102F0902D
:1010C0000202D70114968D919C911597892B09F4F2
:1010D00003C18C9191E09093BC018093DE0110924A
:1010E000BD011092DF0120E041E050E0BE016F5FE2
:1010F0007F4FC7010E946202882309F4EDC0CC240F
:10110000C394A5EC3A2EF701A480B58001E0A114A8
:10111000B10409F400E0802E912C102FD7012C90FF
:101120000E94D0002B013C018091B601811164C066
:10113000C092B6010093B501BFEFB093B401109215
:10114000B3018FEF800F8093B201C0929101809123
:101150009101220C282A20929101809190018130E6
:1011600009F08CC0109290010E94D0002B013C012C
:10117000809191018093BB008091B8019091B90159
:10118000A091BA01B091BB01892B8A2B8B2BA1F0C6
:101190000E94D0002091B8013091B9014091BA016C
:1011A0005091BB01641975098609970926173707FD
:1011B0004807590708F441C08091BC0083FDD8CF8F
:1011C0003092BC000E94D0002B013C018091B601FE
:1011D000813009F457C08091B301801710F4109149
:1011E000B301E2E9F1E0A0E6B1E080E0811751F15E
:1011F00091919D938F5FFACF8091B8019091B90141
:10120000A091BA01B091BB01892B8A2B8B2B09F4D9
:101210008BCF0E94D0002091B8013091B90140914C
:10122000BA015091BB0164197509860997092617FF
:1012300037074807590708F077CF8091B7010E9418
:10124000510110E010928F0110938E0118151904AE
:1012500009F042C030E020E028153905A8F5D70193
:1012600011968D919C91DC01ED91FC910284F385A6
:10127000E02D099521E030E0D82EEECFE5EEE093A9
:10128000BC00A0CF8091B8019091B901A091BA01A2
:10129000B091BB01892B8A2B8B2B09F497CF0E942D
:1012A000D0002091B8013091B9014091BA0150911C
:1012B000BB0164197509860997092617370748077E
:1012C000590708F083CFB9CFAB2809F41CCF6D2D97
:1012D0006F7785E90E942E031092F7011092F801B2
:1012E0001092F9011092FA011092FB011092FC0188
:1012F0001092FD011092FE011092FF011092000267
:1013000081E08093EC018091EC01882321F060E082
:1013100083E00E942E035298F0E08F2EF0E09F2E83
:10132000772473944A9B55C080918001811151C0EC
:101330008091EC01882379F012ECE12EFF24F394E4
:1013400000E010E02EE130E040E050E06EE190E09F
:1013500080E00E9441048091EC018823B9F08091E3
:10136000F701882399F065E0A62EB12CC12CD12C71
:1013700015E0E12EF12C00E010E02DE030E040E03F
:1013800050E070E060E080E00E945D0369E181E090
:1013900090E00E94A8058091EC018823C1F0809123
:1013A000FC018823A1F04BE4A42EBB24B394C12CF0
:1013B000D12C18ECE12EF12C00E010E02EEA30E008
:1013C00040E050E061E070E081E00E945D037092D7
:1013D00080014A994AC080918001882309F445C060
:1013E00060E190E080E00E94A8058091EC018823F4
:1013F000B9F08091F701882399F02BE1A22EB12C4E
:10140000C12CD12C1EE0E12EF12C00E010E027E0F1
:1014100030E040E050E070E060E080E00E945D037A
:1014200064E281E090E00E94A8058091EC018823AD
:10143000D1F08091FC018823B1F085E6A82E8BEFD6
:10144000B82E82E0C82ED12C1AE2E12E17EFF12E31
:1014500002E010E02AEC30E040E050E061E070E0B3
:1014600081E00E945D03109280018114910409F4CF
:1014700059CF0E94000056CF5058BB27AA270E9480
:10148000540A0C94DE0B0E94D00B38F00E94D70B4C
:1014900020F039F49F3F19F426F40C94CD0B0EF490
:1014A000E095E7FB0C949E0BE92F0E94EF0B58F39D
:1014B000BA17620773078407950720F079F4A6F539
:1014C0000C94290C0EF4E0950B2EBA2FA02D0B01D5
:1014D000B90190010C01CA01A0011124FF27591B79
:1014E00099F0593F50F4503E68F11A16F040A22F7F
:1014F000232F342F4427585FF3CF469537952795F0
:10150000A795F0405395C9F77EF41F16BA0B620BEE
:10151000730B840BBAF09150A1F0FF0FBB1F661F35
:10152000771F881FC2F70EC0BA0F621F731F841F78
:1015300048F4879577956795B795F7959E3F08F09E
:10154000B0CF9395880F08F09927EE0F9795879560
:1015500008950E94BD0A0C94DE0B0E94D70B58F030
:101560000E94D00B40F029F45F3F29F00C949E0BB1
:1015700051110C942A0C0C94CD0B0E94EF0B68F3C4
:101580009923B1F3552391F3951B550BBB27AA273C
:1015900062177307840738F09F5F5F4F220F331F76
:1015A000441FAA1FA9F335D00E2E3AF0E0E832D03E
:1015B00091505040E695001CCAF72BD0FE2F29D041
:1015C000660F771F881FBB1F261737074807AB0713
:1015D000B0E809F0BB0B802DBF01FF2793585F4F88
:1015E0003AF09E3F510578F00C949E0B0C942A0C17
:1015F0005F3FE4F3983ED4F3869577956795B7956A
:10160000F7959F5FC9F7880F911D9695879597F974
:101610000895E1E0660F771F881FBB1F62177307ED
:101620008407BA0720F0621B730B840BBA0BEE1F02
:1016300088F7E09508950E94F70B88F09F5798F07F
:10164000B92F9927B751B0F0E1F0660F771F881FC7
:10165000991F1AF0BA95C9F714C0B13091F00E94E1
:10166000290CB1E008950C94290C672F782F882756
:10167000B85F39F0B93FCCF3869577956795B39508
:10168000D9F73EF490958095709561957F4F8F4F77
:101690009F4F0895E89409C097FB3EF4909580957C
:1016A000709561957F4F8F4F9F4F9923A9F0F92F28
:1016B00096E9BB279395F695879577956795B795A6
:1016C000F111F8CFFAF4BB0F11F460FF1BC06F5F8C
:1016D0007F4F8F4F9F4F16C0882311F096E911C09E
:1016E000772321F09EE8872F762F05C0662371F0BF
:1016F00096E8862F70E060E02AF09A95660F771FD3
:10170000881FDAF7880F9695879597F908950E94B4
:10171000110C90F09F3748F4911116F00C942A0C9C
:1017200060E070E080E89FEB089526F41B16611DD1
:10173000711D811D0C94A40B0C94BF0B97F99F672E
:1017400080E870E060E00895882371F4772321F049
:101750009850872B762F07C0662311F499270DC068
:101760009051862B70E060E02AF09A95660F771F03
:10177000881FDAF7880F9695879597F908959F3F08
:1017800031F0915020F4879577956795B795880F3C
:10179000911D9695879597F908959FEF80EC089590
:1017A00000240A9416161706180609060895002440
:1017B0000A9412161306140605060895092E0394BA
:1017C000000C11F4882352F0BB0F40F4BF2B11F42E
:1017D00060FF04C06F5F7F4F8F4F9F4F089557FD8D
:1017E0009058440F551F59F05F3F71F04795880F8F
:1017F00097FB991F61F09F3F79F087950895121626
:1018000013061406551FF2CF4695F1DF08C01616D1
:1018100017061806991FF1CF869571056105089482
:1018200008950E94F70BA0F0BEE7B91788F4BB2714
:101830009F3860F41616B11D672F782F8827985FA0
:10184000F7CF869577956795B11D93959639C8F32F
:101850000895E894BB2766277727CB0197F9089569
:101860000E94430C0C94DE0B0E94D00B38F00E94B7
:10187000D70B20F0952311F00C949E0B0C94CD0BFC
:1018800011240C942A0C0E94EF0B70F3959FC1F366
:10189000950F50E0551F629FF001729FBB27F00D1E
:1018A000B11D639FAA27F00DB11DAA1F649F662773
:1018B000B00DA11D661F829F2227B00DA11D621FC2
:1018C000739FB00DA11D621F839FA00D611D221F7C
:1018D000749F3327A00D611D231F849F600D211D60
:1018E000822F762F6A2F11249F5750409AF0F1F0E3
:1018F00088234AF0EE0FFF1FBB1F661F771F881F4C
:1019000091505040A9F79E3F510580F00C949E0BDA
:101910000C942A0C5F3FE4F3983ED4F386957795B8
:101920006795B795F795E7959F5FC1F7FE2B880FF1
:10193000911D9695879597F90895EE0FFF1F0590D5
:10194000F491E02D09940F931F93CF93DF9382308E
:10195000910510F482E090E0E0910802F091090214
:1019600030E020E0B0E0A0E0309799F42115310597
:1019700009F44AC0281B390B24303105D8F58A8177
:101980009B816115710589F1FB0193838283FE01BF
:1019900011C0408151810281138148175907E0F03D
:1019A0004817590799F4109761F012960C93129703
:1019B00013961C933296CF01DF91CF911F910F9117
:1019C00008950093080210930902F4CF2115310500
:1019D00051F04217530738F0A901DB019A01BD010C
:1019E000DF01F801C1CFEF01F9CF90930902809395
:1019F0000802CDCFFE01E20FF31F81939193225095
:101A0000310939832883D7CF20910602309107020C
:101A1000232B41F4209102013091030130930702FE
:101A2000209306022091000130910101211531051A
:101A300041F42DB73EB74091040150910501241B9C
:101A4000350BE0910602F0910702E217F307A0F4CC
:101A50002E1B3F0B2817390778F0AC014E5F5F4F04
:101A60002417350748F04E0F5F1F5093070240932D
:101A70000602819391939FCFF0E0E0E09CCFCF935B
:101A8000DF930097E9F0FC01329713821282A09154
:101A90000802B0910902ED0130E020E01097A1F4B6
:101AA00020813181820F931F20910602309107021D
:101AB0002817390709F061C0F0930702E093060286
:101AC000DF91CF910895EA01CE17DF07E8F54A814B
:101AD0005B819E0141155105B1F7E901FB83EA8362
:101AE00049915991C40FD51FEC17FD0761F480810E
:101AF00091810296840F951FE901998388838281E1
:101B000093819B838A83F0E0E0E012968D919C9113
:101B100013970097B9F52D913C911197CD0102963D
:101B2000820F931F20910602309107022817390770
:101B300039F6309751F51092090210920802B093CD
:101B40000702A0930602BCCFD383C2834081518198
:101B5000840F951FC817D90761F44E5F5F4F8881C6
:101B60009981480F591F518340838A819B819383B8
:101B700082832115310509F0B0CFF0930902E0937B
:101B800008029ECFFD01DC01C0CF13821282D7CFA5
:041B9000F894FFCFF7
:101B940000000A0280002A323A00000000FC02CF52
:0C1BA400022B03A502C802B502A6020035
:00000001FF
